:020000040800F2
:10000000A896002089020008B5470008E1330008DF
:10001000F14600089117000865560008000000002E
:10002000000000000000000000000000314E000849
:10003000951700080000000043030008334E000835
:10004000A3020008A3020008A3020008A3020008FC
:10005000A3020008A3020008A3020008A3020008EC
:10006000A3020008A3020008A3020008A3020008DC
:10007000A3020008A3020008A3020008A3020008CC
:10008000A3020008A3020008A3020008A3020008BC
:10009000A3020008A3020008A3020008A3020008AC
:1000A000A3020008A3020008A3020008A30200089C
:1000B000A3020008A3020008A3020008A30200088C
:1000C000A3020008A3020008A30200082D4E0008A6
:1000D0002F4E0008A3020008515600085B56000886
:1000E00097170008A3020008A3020008A302000853
:1000F000A3020008A3020008A3020008A30200084C
:10010000A3020008A3020008A3020008A30200083B
:10011000A3020008A3020008A3020008A30200082B
:10012000A3020008A3020008A3020008A30200081B
:10013000A3020008A3020008A3020008A30200080B
:10014000A3020008A3020008A3020008A3020008FB
:10015000A3020008A3020008A3020008A3020008EB
:10016000A3020008A3020008A3020008A3020008DB
:10017000A3020008A3020008A30200080000000078
:10018000A3020008A302000800F002F800F06CF8D7
:100190000AA090E8000C82448344AAF10107DA45E2
:1001A00001D100F061F8AFF2090EBAE80F0013F0C8
:1001B000010F18BFFB1A43F001031847D87A00005B
:1001C000F87A00000A444FF0000C10F8013B13F0DD
:1001D000070408BF10F8014B1D1108BF10F8015BA0
:1001E000641E05D010F8016B641E01F8016BF9D193
:1001F00013F0080F1EBF10F8014BAD1C0C1B09D1EA
:100200006D1E58BF01F801CBFAD505E014F8016B5B
:1002100001F8016B6D1EF9D59142D6D370470000ED
:100220000023002400250026103A28BF78C1FBD8FF
:10023000520728BF30C148BF0B607047662907F0DE
:10024000AA84732900F07385002070471FB507F05A
:1002500098FC00F075FD04000020002107F048F92B
:10026000E0601FBD10B510BD00F062FE1146FFF743
:10027000EDFF05F0D7FF00F080FE03B4FFF7F2FFBB
:1002800003BC00F0C3FE000009488047094800474E
:10029000FEE7FEE7FEE7FEE7FEE7FEE7FEE7FEE736
:1002A000FEE7FEE704480549054A064B7047000093
:1002B000F94E000889010008A8900020A8960020A7
:1002C000A8920020A8920020344C354D2560354876
:1002D0004FF0010101604FF0020080F314883248B2
:1002E000426831480260304B186887884FF0100828
:1002F00047EA08078780D0F800C00CF1640CBCE81E
:10030000FF000CF1480C8CF309882DED010ABDECBF
:10031000010AAE4662B63047EFF30580704772B609
:100320007047EFF3108072B67047EFF3108062B63B
:10033000704780F3108870471C484FF0805101606F
:100340007047EFF3108C72B6194A126822B12DE98A
:1003500000509047BDE80050EFF3098020E9F01FFE
:1003600020ED108B104D2E683060B7884FF01008CC
:1003700027EA0807B7800C484068286087884FF054
:10038000100847EA08078780016800F013B800F0FA
:1003900017B881F309888CF31088704720ED00E0CE
:1003A0000000F0F0880000205000002004ED00E084
:1003B0008C000020B1EC088BB1EC08CBFFF7E7BF55
:1003C00030C9B1E8C01FFFF7E4BF53EA020C00F0E8
:1003D00069802DE9F04B4FF00006002B1FBFB3FAE8
:1003E00083F503FA05F424FA05F65E4012BF1643BE
:1003F000B2FA82F502FA05F4C5F120051EBF22FA11
:1004000005FC44EA0C04203556EA044C4FEA144437
:1004100018BF641C4FF000084FF00009904271EBC8
:10042000030C39D3002919BFB1FA81F701FA07F695
:10043000B0FA80F700FA07F6C7F120071EBF20FACE
:1004400007FC46EA0C062037B6FBF4FCA7EB0507D1
:10045000103F07F01F0BCBF120060CFA0BFB2CFA18
:1004600006F644BFB3460026202FA4BF5E464FF0D9
:10047000000B5BEA060C08BF4FF0010B19EB0B09F0
:10048000ABFB027C48EB0608C01B06FB02CC0BFB57
:1004900003CC71EB0C01C1E70B46024641464846CE
:1004A000BDE8F08B13B54FF000004FF00001AFF343
:1004B0000080BDE81C4070470FB41CB5084B06AA6D
:1004C0007B4469460090059800F007FC0446002034
:1004D000694600F015FC20461CBC5DF814FB0000CA
:1004E0003D08000070B50C460546012A05D0287865
:1004F000800600D5EA69002302E0012305E05B1CC9
:10050000934202D2E05C0028F9D1A869E618C01A2B
:10051000A861286A184428622846AFF3008004E0E6
:10052000D5E9012114F8010B9047B442F8D32846CD
:10053000AFF3008070BD00002DE9F05F89460446EE
:100540004FF0000ADFF874B1FB44C0F820A0204649
:10055000E1688847002874D0252806D0D4E9012115
:100560009047206A401C2062F1E700265F46204643
:10057000E16888472028054607DB312D05D2781928
:1005800010F8200C08B10643F1E7B00701D526F0BA
:100590000406C4F81CA00027C4F818A02A2D09D00E
:1005A000284605F083F838B304EB8708303DC8F8D7
:1005B000185019E059F8041B204604EB870291619A
:1005C000E1688847012F054618D1E069002820DA44
:1005D00026F020061DE0D8F8180000EB800005EB9F
:1005E00040003038C8F818002046E16888470546C2
:1005F00005F05CF80028EED1012F0AD02E2D08D18D
:100600002046E16888477F1C0546022F46F02006F9
:10061000C4DBA069002803DA404246F00106A0616D
:10062000F00701D026F010066C2D0BD0682D09D0F4
:100630004C2D39D06A2D35D0742D35D07A2D33D04C
:1006400016E038E0E1682F4620468847B842054664
:1006500009D16C2F26D04FF48060E1680643204614
:100660008847054604E06C2F1AD04FF4807006438B
:100670000DB3A5F14100192802D8203546F40066D3
:100680004A462946204626604E46FFF7D7FD80B1F0
:1006900001280BD0F61D26F0070000F1080956E7E7
:1006A0004020E4E78020D8E70020D6E706F10409DF
:1006B0004DE7284652E7206A00F002B8A176000014
:1006C00030BCBDE8C09F30B505460B462A4613F83E
:1006D000014B12F8010B08B1A042F8D01CB1002860
:1006E00002D06D1CF1E7284630BD10B5431C02E076
:1006F00010F8011B71B18107FAD14FF0013202C825
:100700008C1A8C4314EAC211F9D0C01A0A0603D01D
:10071000C01E10BDC01A10BD0A0401D0801E10BD3D
:100720000902FCD0401E10BD032A40F2308010F0B8
:10073000030C00F0158011F8013BBCF1020F62447C
:1007400098BF11F801CB00F8013B38BF11F8013B0D
:10075000A2F1040298BF00F801CB38BF00F8013BBA
:1007600011F0030300F02580083AC0F0088051F82A
:10077000043B083A51F804CBA0E80810F5E7121D35
:100780005CBF51F8043B40F8043BAFF30080D20754
:1007900024BF11F8013B11F801CB48BF11F8012B20
:1007A00024BF00F8013B00F801CB48BF00F8012B43
:1007B000704710B5203AC0F00B80B1E81850203ACD
:1007C000A0E81850B1E81850A0E81850BFF4F5AFF1
:1007D0005FEA027C24BFB1E81850A0E8185044BF7B
:1007E00018C918C0BDE810405FEA827C24BF51F8E8
:1007F000043B40F8043B08BF7047D20728BF31F8DC
:10080000023B48BF11F8012B28BF20F8023B48BF2C
:1008100000F8012B70474FF000020429C0F012804D
:1008200010F0030C00F01B80CCF1040CBCF1020FA3
:1008300018BF00F8012BA8BF20F8022BA1EB0C0178
:1008400000F00DB85FEAC17C24BF00F8012B00F86E
:10085000012B48BF00F8012B70474FF0000200B594
:10086000134694469646203922BFA0E80C50A0E8D3
:100870000C50B1F12001BFF4F7AF090728BFA0E881
:100880000C5048BF0CC05DF804EB890028BF40F84D
:10089000042B08BF704748BF20F8022B11F0804F8F
:1008A00018BF00F8012B70477047704770477047BA
:1008B0002DE9FF4F0C461E464FF0FF378BB0D2E9B3
:1008C0000001DDF860800A908A46C1F30A5505B937
:1008D0003D46002108464FF00000BAF1000F00F439
:1008E000400005DA00EB80004FF4400101EA5000BF
:1008F0004FEA9059B9F1010F00DDB9460A9850EA64
:100900004A000ED044F61050A5F2FF3545432F148F
:10091000B8F1000F1ED07542291E1EDDC9F100027C
:100920001CE0B8F1010F4FF0000001D0302103E0CE
:10093000F24305E02154401CB042FBDB304600226C
:10094000002121540B99C1F80880C1E900200FB0A3
:1009500000F0BAB9BD1B6D1CDEE74A4600DA6942F9
:1009600006A800F077FA06AB93E8070003AB83E82C
:10097000070050460A9900F050FB8DE80700A0F5EB
:1009800000501F3800900398002D09DD42F21F012E
:100990004A46084403A90390684600F0AFFD08E00A
:1009A000A0F500504A461F3803A90390684600F09E
:1009B000B9FD8DE807000004000C03D04FF0FF30B4
:1009C000410800E01046B8F1000F03D00022009269
:1009D00015461EE0751E05D400F0B6F9303262559A
:1009E0006D1EF9D5B3460122084302D000227F1CB8
:1009F00004E02078302801D100227F1E002A0997C8
:100A000086D01DE0112D07DA00F09EF930326255D4
:100A10006D1C50EA0102F5D1084302D00098C8B11C
:100A20000EE00021681E05E0235C625C63542254E2
:100A3000401E491C8142F7DBAB46A81B401E0990B3
:100A4000002004F80B000B98099AC0F80880C0E950
:100A5000002B7CE711264FF0000859E72DE9F04FF5
:100A600088460446D21D22F0070191B0D1E9000169
:100A7000CDE90A0104F002FE02460B98C00F01D036
:100A80002D2007E02068810701D52B2002E02021DE
:100A900001EAC000032A099001D0072A05DB0346BA
:100AA0004146204600F096F90BE12078800601D5FA
:100AB000E06900E00620B8F1650F814606D0B8F184
:100AC000660F18D0B8F1670F70D131E00020B9F18E
:100AD000110F009001DB112301E009F101030AAAC3
:100AE00001A90CA8FFF7E4FEDDE90C70002609F16E
:100AF0000105834647E001204B4600904FF0004738
:100B00000AAA01A90CA8FFF7D3FEDDE90DB00C99E4
:100B10005D46002610B909F101000D18B9EB05007A
:100B200003D4C0F1FF3609F10105A5EB09002BE064
:100B3000B9F1010F01DA4FF001090020B9F1110FED
:100B40000090484601DD112300E003460AAA01A9EE
:100B50000CA8FFF7ADFEDDE90C704D46002683467C
:100B6000207800070AD4AB4500DA5D4601A8012DC4
:100B700004DD411911F8011C302907D04F4502DA74
:100B800017F1040F04DA012082460FE06D1EEEE734
:100B9000002F02DCED1B3E4403E0781CA84200DD80
:100BA0007D1CB81B00F1010A4FF0004720780007B8
:100BB00003D4AA4501DB4FF0FF3A0021B7F1004F03
:100BC0000DF143088DF8431024D002202B23002F71
:100BD00001DA7F422D230A21021EA0F1010000DC70
:100BE0005FB197FBF1FC97FBF1F201FB1C7C174610
:100BF0000CF1300C08F801CDEEE7A8F1010003700C
:100C00002188090501D5452100E06521A0F10108F1
:100C100000F8011C09980FA9A1EB0807FF1D00B1FE
:100C20000120411901EBEA70A1693844081A401EFD
:100C3000A0612078C00602D42046AFF30080099856
:100C400028B1D4E901219047206A401C2062207815
:100C5000C00622D52046AFF300801EE0002E04DB44
:100C6000B34502DD01A8805D00E03020D4E9012118
:100C70009047206A401C2062761CAAF101005FEABE
:100C8000000A0AD100F05CF8C0680168405CD4E951
:100C900001219047206A401C2062281EA5F1010511
:100CA000DCDC07E0D4E9012118F8010B9047206A49
:100CB000401C2062381EA7F10107F3DC2046AFF389
:100CC0000080032011B043E630BCBDE8C08F0000B7
:100CD00001694A1C02610878704700B58FB0CDE900
:100CE00001310021059105497944CDE903101146F0
:100CF0006846FFF721FC0FB000BD0000E5FFFFFFD5
:100D00000A6802F8010B0A60704710B5436913B115
:100D1000AFF3008001E0FFF7E5FB012010BD127882
:100D200000F124010A7000224A700122EDE71168E7
:100D30004FF0FF32E9E7000000487047489000207C
:100D4000004870476890002030B5B0F10A024FEAC1
:100D5000900E71F100034EEA817EB0EB0E0061EB64
:100D600091014FEA101E4EEA017E10EB0E0041EB9E
:100D700011114FEA102E4EEA016E10EB0E0041EBFE
:100D800011214FEA104E4EEA014E10EB0E0041EBDE
:100D90001141401841F100014FEAD00040EA417092
:100DA0004FEAD10110EB80054FEA810444EA9074C8
:100DB00044EB01046D1944EB0404521BA3414FF0B2
:100DC000000348BF0A3200D530BD401C41F100018C
:100DD00030BD00002DE9F0411F460446032601689E
:100DE000072A01F4006004DB08B116A505E016A58A
:100DF00003E008B115A500E015A521F01000206062
:100E0000A069C01EA0610FB1401EA0612046AFF3D3
:100E100000804FB1D4E9012138469047206A401C38
:100E20002062C01C206206E0206AFAE7D4E90121B2
:100E300015F8010B9047761EF8D22046AFF30080DC
:100E4000BDE8F0814E414E006E616E00494E460095
:100E5000696E66002DE9F047814616468AB0334830
:100E600078440DC88DE80D0030487844801C03ACF0
:100E70000DC884E80D0041F69B300844372190FBF3
:100E8000F1F290FBF1F5A5F1800501FB12041B3C8A
:100E900002D56442012000E00020DFF890A08046E7
:100EA0000027FA44AAF1BE0A0DE0E00709D0324655
:100EB000684607EB47010AEB810100F033FB8DE840
:100EC000070064107F1C002CEFD1184F7F44AC3F0B
:100ED00018E0E80714D007EB04100DF1180A90E8A9
:100EE0000E008AE80E00C068F04201D198190890FF
:100EF000324606A903A800F015FB03AB83E8070000
:100F00006D10641C002DE4D132466946B8F1000F23
:100F100003A802D000F0F2FA01E000F003FBC9E9F7
:100F20000001C9F808200AB0BDE8F087186E00007B
:100F30007546FFF701FFAE4605006946534620F0AF
:100F40000700854618B020B5FFF7ACF9BDE8204092
:100F50004FF000064FF000074FF000084FF0000B75
:100F600021F00701AC46ACE8C009ACE8C009ACE828
:100F7000C009ACE8C0098D46704710B50446AFF310
:100F800000802046BDE81040FFF777B94FF0013CE4
:100F900050F8042B51F8043B9A4221D1A2EB0C03E8
:100FA000934313EACC1317D150F8042B51F8043BA8
:100FB0009A4215D1A2EB0C03934313EACC130BD145
:100FC00050F8042B51F8043B9A4209D1A2EB0C03D0
:100FD000934313EACC13DBD04FF00000704700BFFF
:100FE000D01A01BAB1FA81F101F0180122FA01F028
:100FF000CB40C1F12001DBB2C0B2C01A2CFA01F320
:10100000D11A914311EAC311E6D170470149182062
:10101000ABBEFEE72600020070475FEA400C08BF47
:1010200091F0000F4FEA8C234FEAC12243EA51515D
:101030004FEA1C5018BF00F5F0404FEA300018BFCF
:1010400041F000415FEA6C5C00F02980BCF1FF3F99
:1010500008BF40F080407047130C06BF12044FF0E9
:10106000100C4FF0000C130E04BF12020CF1080C10
:10107000130F04BF12010CF1040C930F04BF920074
:101080000CF1020CD30F04BF52000CF1010C1146FD
:101090004FF00002A0F11F00A0EB0C00704711F010
:1010A000004F08BF704731F000413FF4D5AF0B0C43
:1010B00006BF09044FF0100C4FF0000C0B0E04BFDC
:1010C00009020CF1080C0B0F04BF09010CF1040C10
:1010D0008B0F04BF89000CF1020CCB0F04BF490039
:1010E0000CF1010CCCF12003A0EB0C0022FA03F36D
:1010F00002FA0CF241EA030100F10100704720F00E
:101100007F4C80EA030023F07F47ACEB070303F535
:101110007C5300F0004003F1FF032DE980494FEAC2
:10112000154B09B44FEA144325EA0B4E24EA034851
:101130000FF2042606EB132749083E785FEA3202D5
:1011400003FB0667C7F5000707FB06F64FEA5437AF
:101150004FEAD64606F1020607FB066CCCF1005CAE
:101160004FEA1C472CEA074C07FB06F40CFB06F57C
:1011700004EB15464FEA961634BF00204FF00040AE
:101180004FEAD13706FB07FC4FEA1C4C0CFB0BF770
:10119000D21B03FB0CF761EB07010CFB0EF7B0EB66
:1011A000074072EB17420CFB08F734BFA2EB074273
:1011B000B2EB074261EB17414FEA0C444FEA91074B
:1011C00006FB07FC4FEA1C4C0CFB0BF7B0EBC740CF
:1011D00072EB573203FB0CF734BFA2EBC742B2EB02
:1011E000C74261EB57310CFB0EF7B0EBC70072EB57
:1011F00057720CFB08F734BFA2EBC702B2EBC70271
:1012000061EB5771039F4FEA816141EA921104EB50
:10121000CC044FEAD1374FEA826206FB07FC42EA70
:1012200090124FEA80604FEA1C4C0CFB0BF7D21B6C
:1012300003FB0CF761EB07010CFB0EF7B0EB07406B
:1012400072EB17420CFB08F734BFA2EB0742B2EB7C
:10125000074261EB17414FEA8C554FEA910704EBC7
:101260009C2406FB07FC4FEA1C4C0CFB0BF7B0EB75
:10127000C74072EB573203FB0CF734BFA2EBC742F7
:10128000B2EBC74261EB57310CFB0EF7B0EBC70076
:1012900072EB57720CFB08F734BFA2EBC702B2EB3C
:1012A000C70261EB577115EB4C254FEA816141EAAA
:1012B00092114FEA82624FEAD13742EA901206FB5E
:1012C00007FC44F100044FEA80604FEA1C4C0CFB21
:1012D0000BF7D21B03FB0CF761EB07010CFB0EF7BE
:1012E000B0EB074072EB17420CFB08F734BFA2EBE0
:1012F0000742B2EB074261EB174115EB1C154FEAB1
:10130000813141EA92414FEA823242EA90424FEA09
:1013100080304FEA0C7644F1000448EA03434EEA79
:101320000B484FF0000EB2EB080C71EB030724BF23
:10133000624639464EEB0E0E4FF0000B001852413C
:1013400049414BEB0B0BB2EB080C71EB03077BF144
:10135000000B24BF624639464EEB0E0E4FF0000BD9
:101360000018524149414BEB0B0BB2EB080C71EBEF
:1013700003077BF1000B24BF624639464EEB0E0E8D
:1013800051EA020718BF46F0010616EB0E7655F13A
:10139000000254F1000103D5BDE88901BDE80088D1
:1013A000BDE88901BDE80048B619524141EB010191
:1013B000A3F10103704780807F7E7D7C7B7A797802
:1013C000777676757473727171706F6E6E6D6C6C0A
:1013D0006B6A6A69686867666665646463636261AC
:1013E0006160605F5F5E5E5D5D5C5C5B5B5A5A592D
:1013F0005958585757565655555554545353525299
:101400005251515050504F4F4F4E4E4D4D4D4C4CF0
:101410004C4B4B4B4A4A4A49494948484847474739
:101420004746464645454544444444434343434276
:10143000424242414141002B26D4770021D01CB5C5
:101440004FEA370703B44FF010004FF010014FF090
:1014500000000FBCBDE810400BF1010BBBF1010F08
:1014600008BF5FEA170722BF12F1010211F1010163
:101470004FF0004143F1000300F0004043EA000058
:101480007047F9D35708DAE746EA064613F1400FEA
:101490004FEA16461FDD13F1200FDFBF16430A4641
:1014A000002120335B42C8D0C3F1200746EA06463C
:1014B00002FA07F74FEA164646EA0706C3F1200785
:1014C00022FA03F201FA07F721FA03F14FF00003C1
:1014D00042EA0702B1E746EA020646EA06464FEA52
:1014E000164646EA0106BCBF46EA0646360C4FF0F1
:1014F00000034FF000024FF000019EE72DE9C048C5
:10150000934630B491E8380007C831EA400C48BF30
:1015100034EA430C03D5FFF7F2FDFFF78CFFF0BC74
:10152000BDE800882DE9C048934630B491E8380002
:1015300007C810F0804F08BF13F0804F03D100F0B0
:1015400005F8FFF778FFF0BCBDE8008820F07F4782
:1015500080EA030023F07F4C07EB0C03A3F57C53D8
:1015600000F00040A3F1FE0392F0000F00F0B38002
:1015700095F0000F00F077802DE901494FEA114006
:101580004FEA144621EA004800FB06FC24EA06471D
:1015900008FB06F607FB08F800FB07F718EB064800
:1015A0004CEB164C4FEA124B18EB07484FEA154626
:1015B0004CEB174022EA0B4E0BFB06FC25EA0647D4
:1015C0000EFB06F607FB0EFE0BFB07F71EEB064EA7
:1015D0004CEB164C4FF000061EEB074E4CEB174B36
:1015E00018EB0B0840F1000018EB0E0B58EB00084D
:1015F00040F100008F1A4FF000013CBFC943661B49
:1016000014BFB5EB040C00213CBFC943F61B4FEAE5
:1016100017444EEA8E0E27EA04454FEA1C4704FBA6
:1016200007622CEA074C05FB07F70CFB05F604FBE9
:101630000CFC16EB074642EB174216EB0C4642EB4E
:101640001C421BEB060658EB0202414146EA9E068D
:1016500001D5BDE80189B619524141EB0101A3F161
:101660000103BDE801894FEA14454FEA114724EA16
:10167000054621EA074C05FB07F406FB07F70CFBC0
:1016800006F105FB0CFC11EB074144EB17444FEA54
:10169000124711EB0C4144EB1C4422EA074C05FBBA
:1016A00007F206FB07F70CFB06F605FB0CFC16EB36
:1016B000074642EB174216EB0C4642EB1C456A18F4
:1016C00054F1000148BF7047B619524141EB010186
:1016D000A3F10103704795F0000F37D04FEA114294
:1016E0004FEA144721EA024624EA074C02FB07F1BD
:1016F00006FB07F70CFB06F402FB0CFC14EB07449B
:1017000041EB17414FEA154714EB0C4441EB1C41E8
:1017100025EA074C02FB07F506FB07F70CFB06F66C
:1017200002FB0CFC16EB074645EB174516EB0C4687
:1017300045EB1C42121951F1000148BF7047B61920
:10174000524141EB0101A3F1010370474FEA1445F7
:101750004FEA114724EA054621EA074C05FB07F149
:1017600006FB07F70CFB06F24FF0000605FB0CFC2E
:1017700012EB074241EB174112EB0C4251EB1C41BB
:1017800048BF7047921841EB0101A3F10103704774
:1017900000BFFEE7704710B54FF4005000F0F6F8B8
:1017A00010BD0000ADF5816D6423312229A1022016
:1017B00004F046FC4FF47A7004F0C6FD64232B223B
:1017C00031A1022004F03CFC4FF47A7004F0BCFD1F
:1017D0003EE0354890ED000B8DED000B334890ED69
:1017E000000B53EC102B32A102A8FEF765FE02A8F5
:1017F000FEF77BFF04464FF47A73224602A90220CB
:1018000004F01EFC47F2305004F09EFD4FF480615E
:1018100002A8FFF722F830480078C0B12F4A30A163
:1018200002A8FEF749FE02A8FEF75FFF04464FF448
:101830007A73224602A9022004F002FC4FF47A7067
:1018400004F082FD4FF4806102A8FFF706F800BFA4
:10185000BFE7000057656C636F6D6520746F20757E
:101860007365205468756E646572536F6674204E9C
:10187000422D496F5420646576656C6F7020626FED
:10188000617264210A000000BBB6D3ADCAB9D3C3EC
:10189000D6D0BFC6B4B4B4EF4E422D496F54BFAAE0
:1018A000B7A2B0E5A3A10A000000002008000020B4
:1018B00030312E54656D7065726174757265206982
:1018C000732025662C2048756D69646974792069D8
:1018D000732025660A000000D80000203890002000
:1018E00030322E4E422D496F74206D6F64756C65D9
:1018F00020494D4549203A2025730A0070B5044619
:1019000000F064F906462546681C00B16D1C00BF56
:1019100000F05CF9801BA842FAD370BD70B5064692
:101920004FF40051174800F043F9012829D1002451
:1019300001E06D1C641CB4F57A6FFADD4FF40051C0
:10194000104800F035F901281AD10F48006820F43A
:1019500040400D4908600846006840F48040086037
:101960008021094800F024F928B10022802106488E
:1019700000F026F904E001228021034800F020F95C
:1019800000BF70BD000800480004004810B50446C0
:1019900004480068204020B1024804602046FFF758
:1019A000BDFF10BD1404014078B503460022002499
:1019B0000020E5E0012696400D6805EA0604002CAB
:1019C0007DD04D68022D02D04D68122D13D1D6085E
:1019D00003F1200555F826005507EE0E0F25B540FA
:1019E000A8435607F60E0D69B5402843D60803F103
:1019F000200545F82600186856000325B540A84381
:101A00000D7905F003055600B540284318604D6870
:101A1000012D08D04D68022D05D04D68112D02D042
:101A20004D68122D13D1986856000325B540A84380
:101A30005600CD68B5402843986058680125954008
:101A4000A8430D79C5F300159540284358600D79DA
:101A500005F00305032D09D1D86A01259540A84357
:101A60000D79C5F3C00595402843D862D868560063
:101A70000325B540A84356008D68B5402843D8607B
:101A80004D6805F08055B5F1805F78D100BF3F4DBE
:101A90002D6E45F001053D4E356635462D6E05F03F
:101AA0000105009500BF00BF4FEAB635960855F80E
:101AB000260095072E0F0F25B540A84300E05EE0F5
:101AC000B3F1904F01D100251EE0314DAB4201D161
:101AD000012519E02F4DAB4201D1022514E02E4D16
:101AE000AB4201D103250FE02C4DAB4201D10425BF
:101AF0000AE02B4DAB4201D1052505E0294DAB4253
:101B000001D1062500E007259607360FB54028438A
:101B1000254D960845F82600244D2868A0434D68B9
:101B200005F48035B5F5803F00D120431F4D286076
:101B30002D1D2868A0434D6805F40035B5F5003F1C
:101B400000D12043194D2D1D28602D1D2868A0436C
:101B50004D6805F48015B5F5801F00D12043134D65
:101B6000083528602D1D2868A0434D6805F4001530
:101B7000B5F5001F00D120430C4D0C352860521CD8
:101B80000D68D540002D7FF415AF78BD00100240E0
:101B90000004004800080048000C004800100048FD
:101BA00000140048001800480800014000040140EB
:101BB000024613690B400BB1012000E00020704782
:101BC0000AB1816100E0816270470000014800684D
:101BD0007047000024000020024692F841002028AF
:101BE0002DD100BF92F84000012801D1022070479A
:101BF000012082F8400000BF242082F841001068D4
:101C0000006820F00100136818601068006820F474
:101C100080501368186010680068084313681860E3
:101C20001068006840F0010013681860202082F8F6
:101C3000410000BF002082F8400000BFD7E702202B
:101C4000D5E710B502460B46002192F84100202846
:101C50002AD100BF92F84000012801D1022010BD16
:101C6000012082F8400000BF242082F84100106863
:101C7000006820F00100146820601068016821F4F9
:101C8000706141EA0321106801601068006840F04B
:101C9000010014682060202082F8410000BF00206D
:101CA00082F8400000BFDAE70220D8E710B504460A
:101CB0000CB9012010BD94F8410028B9002084F827
:101CC0004000204600F0CCF9242084F84100206830
:101CD000006820F0010021680860606820F07060F2
:101CE000216808612068806820F4004021688860CD
:101CF000E068012805D1A06840F4004021688860B0
:101D000004E0A06840F4044021688860E06802288C
:101D100002D1800221684860206840681349084366
:101D2000216848602068C06820F400402168C860CD
:101D3000D4E904010843A16940EA01202168C86090
:101D4000D4E907010843216808602068006840F072
:101D500001002168086000206064202084F84100B0
:101D60000020206384F8420000BFA3E70080000247
:101D70002DE9F8430446894616461F46DDF82080C3
:101D8000002594F8410020287AD100BF94F8400043
:101D9000012802D10220BDE8F883012084F8400028
:101DA00000BFFFF713FF054619230122D103204688
:101DB000009501F089FB08B10320ECE7222084F8AC
:101DC0004100102084F8420000206064666267854C
:101DD0006063608DFF280DD9FF2020854FF41050DF
:101DE000009094F828204FF080734946204601F077
:101DF00053FB0CE0608D20854FF41050009094F858
:101E000028204FF000734946204601F045FB44E08E
:101E10002A464146204601F083FB30B1606C04281D
:101E200001D10120B7E70320B5E72068406AC1B2BD
:101E3000626A501C60621170208D401E2085608D8A
:101E4000401E6085208D40BB608D30B3434600222C
:101E500080212046009501F037FB08B103209AE766
:101E6000608DFF280DD9FF2020850020009094F878
:101E700028204FF080734946204601F00DFB0CE00E
:101E80002FE0608D20850020009094F828204FF0EE
:101E900000734946204601F0FFFA608D0028B7D153
:101EA0002A464146204601F083FB30B1606C04288D
:101EB00001D101206FE703206DE720202168C86170
:101EC000206840680849084021684860202084F85C
:101ED0004100002084F8420000BF84F8400000BFA9
:101EE00059E7022057E7000000E800FE2DE9F8431B
:101EF0000446894616461F46DDF82080002594F8E2
:101F00004100202877D100BF94F84000012802D179
:101F10000220BDE8F883012084F8400000BFFFF7ED
:101F200055FE054619230122D1032046009501F0F4
:101F3000CBFA08B10320ECE7212084F841001020FF
:101F400084F8420000206064666267856063608D8B
:101F5000FF280CD9FF2020854FF40050009094F802
:101F60002820C3024946204601F096FA0BE0608D16
:101F700020854FF40050009094F828200303494630
:101F8000204601F089FA43E02A464146204601F006
:101F90003AFB30B1606C042801D10120B9E703207D
:101FA000B7E7616A481C6062087821688862608DC2
:101FB000401E6085208D401E2085208D40BB608D99
:101FC00030B34346002280212046009501F07CFA80
:101FD00008B103209DE7608DFF280DD9FF202085E3
:101FE0000020009094F828204FF080734946204646
:101FF00001F052FA0CE02FE0608D20850020009067
:1020000094F828204FF000734946204601F044FA26
:10201000608D0028B8D12A464146204601F0C8FA12
:1020200030B1606C042801D1012072E7032070E711
:1020300020202168C861206840680849084021685C
:102040004860202084F84100002084F8420000BF4E
:1020500084F8400000BF5CE702205AE700E800FE79
:1020600010B586B004461149206888421CD14FF44F
:1020700040700190122002900120039003200490F0
:102080000420059001A90A48FFF78EFC00BF09480B
:10209000806D40F40010074988650846806D00F4A3
:1020A0000010009000BF00BF06B010BD00540040FB
:1020B000000400480010024002480068401C01492A
:1020C000086070472400002010B5032000F0B2F82B
:1020D000002000F005F800F017F8002010BD000007
:1020E00070B50446074800684FF47A71B0FBF1F50B
:1020F000284601F085F800222146501E00F059F8CC
:10210000002070BD2000002008B500BF2148006EEF
:1021100040F001001F4908660846006E00F001000B
:10212000009000BF00BF00BF0846806D40F08050A7
:1021300088650846806D00F08050009000BF00BFA9
:10214000032000F077F8002211466FF00B0000F03A
:1021500030F8002211466FF00A0000F02AF8002241
:1021600011466FF0090000F024F800221146501FBC
:1021700000F01FF800221146101F00F01AF800228C
:102180001146901E00F015F800221146501E00F076
:1021900010F808BD0010024000BF00F01F0201212E
:1021A00091404209920002F1E022C2F8001100BF02
:1021B00070472DE9F05F80460D461646002702F075
:1021C000FBFA074639462A46334601F00700C0F1BC
:1021D000070ABAF1040F02D94FF0040A01E0C0F176
:1021E000070AD14600F1040ABAF1070F02D24FF0F4
:1021F000000A01E0A0F1030AD4464FF0010A0AFAEE
:1022000009FAAAF1010A0AEA020A0AFA0CFA4FF0DC
:10221000010B0BFA0CFBABF1010B0BEA030B4AEAC7
:102220000B042146404602F0CFFA00F000B830BC63
:10223000BDE8C09F00BF00F00702064B19684FF6CB
:10224000FF031940044B0B4343EA0221014B196081
:1022500000BF70470CED00E00000FA0502460021C7
:10226000B2F5007F29D11D48006800F4C060B0F5C8
:10227000007F31D01948006820F4C06040F400703D
:10228000164B186016480068164BB0FBF3F032236B
:1022900000FB03F100E0491E31B11048406900F431
:1022A0008060B0F5806FF6D00C48406900F4806023
:1022B000B0F5806F10D1032070470848006800F423
:1022C000C060B0F5806F07D00448006820F4C0609B
:1022D00040F48060014B18600020EDE70070004082
:1022E0002000002040420F000248006800F4C06057
:1022F00070470000007000402DE9F84304460026B6
:1023000000270025A846208800F40060B0F5006F83
:1023100030D1606E80B1B0F5800F13D0B0F5000FF2
:1023200003D0B0F5400F15D113E0FA48C06840F46F
:102330008030F849C8600FE00021201D02F058FAF3
:10234000054609E0002104F1200002F047FB0546A4
:1023500002E001E0012500BF00BF55B9ED4888301B
:10236000006820F44000616E0843EA49C1F8880023
:1023700000E0A846208800F48050B0F5805F30D19E
:10238000A06E80B1B0F1807F13D0B0F1007F03D098
:10239000B0F1407F15D113E0DE48C06840F48030D2
:1023A000DC49C8600FE00021201D02F021FA05463B
:1023B00009E0002104F1200002F010FB054602E0D4
:1023C00001E0012500BF00BF55B9D2488830006840
:1023D00020F04070A16E0843CE49C1F8880000E0AB
:1023E000A846206800F40030B0F5003F76D14FF0E9
:1023F0000009C848806D00F0805078B900BFC5481A
:10240000806D40F08050C34988650846806D00F0BB
:102410008050009000BF00BF4FF00109BE48006827
:1024200040F48070BC490860FFF7D0FB074606E027
:10243000FFF7CCFBC01B022801D9032505E0B648F5
:10244000006800F480700028F2D000BF85BBB1485E
:102450009030006800F44076D6B1D4F88400B042E1
:1024600016D0AC489030006820F44076A948D0F8E7
:10247000900040F48030A749C1F890000846D0F899
:10248000900020F48030C1F890000846C0F89060B9
:1024900006F00100A8B1FFF799FB074609E0FFF736
:1024A00095FBC01B41F28831884202D9032507E021
:1024B00017E098489030006800F002000028EED045
:1024C00000BF65B993489030006820F44070D4F89C
:1024D000841008438F49C1F8900003E00CE0A8463F
:1024E00000E0A846B9F1010F05D18A48806D20F0BF
:1024F00080508849886500BF207800F0010048B10D
:1025000084488830006820F00300A16B08438149AB
:10251000C1F88800207800F00200022809D17D4827
:102520008830006820F00C00E16B08437949C1F85D
:102530008800207800F00400042809D1754888300C
:10254000006820F03000216C08437249C1F888000F
:10255000207800F00800082809D16E48883000680B
:1025600020F0C000616C08436A49C1F888002078F7
:1025700000F01000102809D166488830006820F467
:102580004070A16C08436349C1F88800207800F0CE
:102590002000202809D15F488830006820F440607E
:1025A000E16C08435B49C1F88800208800F40070A2
:1025B000B0F5007F09D157488830006820F44020EA
:1025C000E16D08435349C1F88800208800F4806019
:1025D000B0F5806F09D14F488830006820F4401072
:1025E000216E08434B49C1F88800207800F0400074
:1025F000402809D147488830006820F44050216DB8
:1026000008434449C1F88800207800F08000802801
:1026100009D140488830006820F44040616D08438B
:102620003C49C1F88800208800F48070B0F5807FB4
:1026300009D138488830006820F44030A16D084343
:102640003449C1F88800208800F40050B0F5005FDC
:102650001FD130488830006820F04060E16E0843A8
:102660002C4988310860E06EB0F1006F06D129482E
:10267000C06840F480102749C8600AE0E06EB0F1FD
:10268000806F06D10121201D02F0B2F8054605B188
:10269000A846206800F40020B0F5002F1FD11D4887
:1026A0008830006820F04060216F08431949883164
:1026B0000860206FB0F1006F06D11648C06840F482
:1026C00080101449C8600AE0206FB0F1806F06D115
:1026D0000121201D02F08CF8054605B1A8462068AE
:1026E00000F48020B0F5802F23D10A48883000689C
:1026F00020F04060616F0843064988310860606FD0
:10270000B0F1006F0AD10348C06840F4801001495D
:10271000C8600EE00010024000700040606FB0F131
:10272000806F06D10121201D02F062F8054605B137
:10273000A846208800F48040B0F5804F1FD1224881
:10274000006820F04050A16F08431F490860A06F47
:10275000B0F1805F07D10221201D02F049F8054643
:102760006DB1A8460BE0A06FB0F1005F07D1022168
:1027700004F1200002F032F9054605B1A846208890
:1027800000F40040B0F5004F09D10F48006820F078
:102790008040E16F08430C498839C1F888002068FF
:1027A00000F48030B0F5803F0AD10748006820F07F
:1027B0000040D4F88010084303498839C1F88800E4
:1027C0004046BDE8F88300008810024070B504461A
:1027D0000D4600267348006800F00700A8420ED29C
:1027E0007048006820F0070028436E4908600846DA
:1027F000006800F00700A84201D0012070BD2078D9
:1028000000F00200022807D16748806820F0F0003D
:10281000A168084364498860207800F0010000281E
:1028200079D06068022806D15F48006800F4003063
:10283000D8B90120E2E76068032806D15A48006849
:1028400000F0007088B90120D8E7606830B95648B8
:10285000006800F0020040B90120CFE7524800684C
:1028600000F4806008B90120C8E74F48806820F074
:102870000300616808434C498860FFF7A7F90646E2
:102880006068022810D108E0FFF7A0F9801B41F230
:102890008831884201D90320B0E74348806800F0BE
:1028A0000C000828F0D136E06068032810D108E059
:1028B000FFF78CF9801B41F28831884201D903204F
:1028C0009CE73948806800F00C000C28F0D122E029
:1028D000606880B908E0FFF779F9801B41F2883120
:1028E000884201D9032089E72F48806800F00C0056
:1028F0000028F0D10FE008E0FFF768F9801B41F2F3
:102900008831884201D9032078E72748806800F0A1
:102910000C000428F0D12348006800F00700A8420A
:102920000ED92048006820F0070028431D490860A0
:102930000846006800F00700A84201D001205DE7CA
:10294000207800F00400042807D11748806820F49C
:10295000E060E168084314498860207800F00800CE
:10296000082808D11048806820F46050216940EAA6
:10297000C1000D49886000F04FF80B49896801F0EB
:10298000F001F02292FAA2F2B2FA82F2D140074AA2
:10299000515CC840064908600020FFF7A1FB0020F9
:1029A0002CE7000000200240001002409C7B000841
:1029B000200000200148006870470000200000202F
:1029C00000B5FFF7F7FF0749896801F4E0614FF4AC
:1029D000E06292FAA2F2B2FA82F2D140024A515C6B
:1029E000C84000BD00100240AC7B000800B5FFF7F6
:1029F000E1FF0749896801F460514FF4605292FA8F
:102A0000A2F2B2FA82F2D140024A515CC84000BD43
:102A100000100240AC7B0008F0B500210023002428
:102A2000022502220020554EB66806F00C065EB163
:102A3000524EB66806F00C060C2E2DD14F4EF6689D
:102A400006F00306012E27D14C4E366806F0080624
:102A50006EB94A4E9436366806F470664FF4706765
:102A600097FAA7F7B7FA87F726FA07F10AE0434E75
:102A7000366806F0F006F02797FAA7F7B7FA87F757
:102A800026FA07F13E4E56F821103C4EB66806F085
:102A90000C0686B908460EE0384EB66806F00C06FD
:102AA000042E01D1374806E0344EB66806F00C0615
:102AB000082E00D13448314EB66806F00C060C2EB4
:102AC0005BD12E4EF66806F003042C4EF66806F035
:102AD0007006702797FAA7F7B7FA87F7FE40721CBF
:102AE000012C29D0022C02D0032C24D111E0254E38
:102AF000B6FBF2F6214FFF6807F4FE474FF4FE4C99
:102B00009CFAACFCBCFA8CFC27FA0CF706FB07F32A
:102B100023E01D4EB6FBF2F6184FFF6807F4FE47A0
:102B20004FF4FE4C9CFAACFCBCFA8CFC27FA0CF778
:102B300006FB07F311E000BFB1FBF2F60F4FFF6891
:102B400007F4FE474FF4FE4C9CFAACFCBCFA8CFC3C
:102B500027FA0CF706FB07F300BF00BF074EF66825
:102B600006F0C0664FF0C06797FAA7F7B7FA87F785
:102B7000FE40761C7500B3FBF5F0F0BD001002407E
:102B8000B47B00080024F40000127A00F8B5044673
:102B90000025207800F01000102874D1FE488068CD
:102BA00000F00C00002870D1FB48006800F0020023
:102BB00018B1A06908B90120F8BDF748216A00687A
:102BC00000F0080020B1F448006800F0F00005E0D3
:102BD000F1489430006800F47060000981421FD908
:102BE000206A01F0D1FF08B10120E5E700BFEA4803
:102BF000006840F00800E84908600846006820F0D6
:102C0000F000216A0843E449086000BF08464068B4
:102C100020F47F40E16940EA0120DF4948601EE07E
:102C200000BFDD48006840F00800DB490860084646
:102C3000006820F0F000216A0843D749086000BF0F
:102C40000846406820F47F40E16940EA0120D2490B
:102C50004860206A01F098FF08B10120ACE7FFF757
:102C6000DBFECD49896801F0F001F02292FAA2F270
:102C7000B2FA82F2D140C94A515CC840C8490860E2
:102C80000020FFF72DFA4BE0FFE7A06980B3C248B0
:102C9000006840F00100C0490860FEF797FF054654
:102CA00006E0FEF793FF401B022801D9032083E7CB
:102CB000B948006800F002000028F2D000BFB64812
:102CC000006840F00800B44908600846006820F039
:102CD000F000216A0843B049086000BF0846406818
:102CE00020F47F40E16940EA0120AB49486017E0E9
:102CF000FFE7A948006820F00100A7490860FEF737
:102D000065FF054606E0FEF761FF401B022801D97A
:102D1000032051E7A048006800F002000028F2D12B
:102D2000207800F00100002868D09B48806800F0FF
:102D30000C0008280BD09848806800F00C000C2884
:102D40000ED19548C06800F00300032808D19248CE
:102D5000006800F4003088B3606878BB01202BE77E
:102D600000BF6068B0F5803F06D18B48006840F432
:102D70008030894908601AE06068B0F5A02F0BD157
:102D80008548006840F48020834908600846006850
:102D900040F4803008600AE07F48006820F480300A
:102DA0007D4908600846006820F48020086000BF64
:102DB000606890B1FEF70AFF054607E01EE0FEF7E7
:102DC00005FF401B642801D90320F5E6724800681E
:102DD00000F400300028F2D010E0FEF7F7FE0546C0
:102DE00006E0FEF7F3FE401B642801D90320E3E66A
:102DF0006948006800F400300028F2D1207800F023
:102E0000020002286AD16448806800F00C0004289F
:102E10000BD06148806800F00C000C281ED15E4881
:102E2000C06800F00300022818D15B48006800F475
:102E3000806018B1E06808B90120BDE656484068D6
:102E400020F0F8504FF0F85292FAA2F2B2FA82F261
:102E5000216991400843504948603FE0E06830B341
:102E60004D48006840F480704B490860FEF7AEFEA4
:102E7000054606E0FEF7AAFE401B022801D9032002
:102E80009AE64548006800F480600028F2D0424885
:102E9000406820F0F8504FF0F85292FAA2F2B2FADD
:102EA00082F22169914008433B49486016E03A4864
:102EB000006820F4807038490860FEF787FE0546F8
:102EC00006E0FEF783FE401B022801D9032073E6CB
:102ED0003148006800F480600028F2D1207800F0CA
:102EE0000800082836D16069D0B12B4894300068BA
:102EF00040F001002849C1F89400FEF767FE05463E
:102F000006E0FEF763FE401B022801D9032053E6CA
:102F100021489430006800F002000028F1D019E048
:102F20001D489430006820F001001B49C1F894004E
:102F3000FEF74CFE054606E0FEF748FE401B022861
:102F400001D9032038E614489430006800F00200EC
:102F50000028F1D1207800F0040004286FD1002669
:102F60000D48806D00F0805070B900BF0A48806D38
:102F700040F08050084988650846806D00F0805018
:102F8000009000BF00BF01260648006800F4807072
:102F9000F8B90448006807E0001002409C7B000874
:102FA000200000200070004040F4807087490860D5
:102FB000FEF70CFE054606E0FEF708FE401B022861
:102FC00001D90320F8E58148006800F480700028EA
:102FD000F2D000BFA068012808D17D48006840F009
:102FE00001007B499039C1F8900021E0A0680528D4
:102FF0000FD17748006840F0040075499039C1F856
:1030000090000846D0F8900040F00100C1F8900010
:103010000EE06F48006820F001006D499039C1F85A
:1030200090000846D0F8900020F00400C1F890000D
:1030300000BFA068A0B1FEF7C9FD054609E02DE07C
:10304000FEF7C4FD401B41F28831884201D90320BC
:10305000B2E55F48006800F002000028F0D012E0FE
:10306000FEF7B4FD054608E0FEF7B0FD401B41F257
:103070008831884201D903209EE55548006800F058
:1030800002000028F0D1012E07D151489038806D00
:1030900020F080504E499039886500BFA06AE8B39F
:1030A0004B489038806800F00C000C2879D0A06A5A
:1030B000022853D146489038006820F08070444977
:1030C00090390860FEF782FD054606E0FEF77EFDBA
:1030D000401B022801D903206EE53D489038006866
:1030E00000F000700028F1D1206B401E0101606BE0
:1030F00041EA0021A06B000941EA4040E16A08432F
:10310000A18F0122C2EB510140EA41514020005DF4
:10311000C2EB500041EA40602D4900E053E0903995
:10312000C8600846006840F0807008600846C068C3
:1031300040F08070C860FEF749FD054606E0FEF7E6
:1031400045FD401B022801D9032035E52048903871
:10315000006800F000700028F1D034E01C4890387E
:10316000006820F080701A499039086008460068AD
:1031700000F0006048B90846006800F0005020B92F
:103180000846C06820F00300C86011489038C06845
:10319000104908400E499039C860FEF717FD0546F2
:1031A00007E00EE0FEF712FD401B022801D90320C4
:1031B00002E507489038006800F000700028F1D15F
:1031C00001E00120F8E40020F6E400000070004077
:1031D00090100240FFFFEEFE042808D14FF0E021DE
:1031E000096941F004014FF0E022116107E04FF05E
:1031F000E021096921F004014FF0E02211617047DC
:1032000070B504462546681EB0F1807F01D30120C9
:103210000FE0681E4FF0E02148610F214FF0FF30B2
:1032200001F0D2FA00204FF0E02188610720086108
:10323000002070BD10B504460CB9012010BDA06976
:1032400000B100E000BF94F8690028B9002084F8BC
:103250006800204600F02AF8242084F869002068DD
:10326000006820F0010021680860204601F03AFF64
:10327000012800D1E2E7606A10B1204601F064FE47
:103280002068406820F49040216848602068806889
:1032900020F02A00216888602068006840F0010062
:1032A00021680860204601F0CBFEC7E710B586B064
:1032B00004462A492068884224D100BF2848806DEE
:1032C00040F40030264988650846806D00F40030DF
:1032D000009000BF00BF60200190022002900120FA
:1032E0000390032004900720059001A91D48FEF7D4
:1032F0005BFB002211462620FEF75BFF2620FEF72F
:103300004BFF28E018492068884224D100BF1448A8
:10331000806D40F48020124988650846806D00F475
:103320008020009000BF00BF4FF440700190022049
:10333000029001200390032004900720059001A92A
:103340000848FEF731FB002211462720FEF731FF27
:103350002720FEF721FF06B010BD0000004400400A
:1033600000100240000C00480048004010B5034621
:1033700093F86900202803D093F8690022282CD103
:1033800001B10AB9012010BD00BF93F868000128FF
:1033900001D10220F7E7012083F8680000BF43F85D
:1033A0004C1F9A80DA8000201862587F4C3B2228FC
:1033B00003D1232083F8690002E0212083F869000B
:1033C00000BF002083F8680000BF1868006840F064
:1033D00080001C6820600020D5E70220D3E77047FA
:1033E00000BFFEE701688969C1F3400111B1002106
:1033F000026891620168896901F0010129B90168D7
:10340000896941F0010102689161704770B5044615
:103410000D46164620688069C0F30010002837D09A
:1034200013E0681C88B125B1FEF7D0FB801BA842D1
:103430000BD9202084F84100002084F8420000BF0E
:1034400084F8400000BF032070BD20688069C0F38D
:1034500040100028E5D010202168C8612020216894
:10346000C8612046FFF7BEFF206840680949084050
:103470002168486004206064202084F84100002016
:1034800084F8420000BF84F8400000BF0120DBE761
:103490000020D9E700E800FEF0B50C46059D0021AC
:1034A00006687168074E3140C4F309064FF47F0780
:1034B00007EA02473E431E432E43314306687160CC
:1034C000F0BD0000009800FC2DE9F04104460E46D6
:1034D00017461D46DDF8188015E0681C98B12DB11F
:1034E000FEF774FBA0EB0800A8420CD9202084F85A
:1034F0004100002084F8420000BF84F8400000BF73
:103500000320BDE8F081206880693040B04201D1DD
:10351000012000E00020B842DFD00020F1E70000E9
:1035200070B504460D46164637E032462946204619
:10353000FFF76CFF08B1012070BD20688069C0F3FF
:103540004010B0B120202168C86120684068174948
:1035500008402168486000206064202084F8410011
:10356000002084F8420000BF84F8400000BF012022
:10357000E2E725B1FEF72AFB801BA8420DD9606C5B
:1035800040F020006064202084F8410000BF00204B
:1035900084F8400000BF0320CEE720688069C0F3B4
:1035A00080000028C1D00020C6E7000000E800FE2F
:1035B00070B504460D4616461DE0324629462046A3
:1035C000FFF724FF08B1012070BD25B1FEF7FEFA18
:1035D000801BA8420FD9606C40F02000606420205E
:1035E00084F84100002084F8420000BF84F84000C5
:1035F00000BF0320E8E720688069C0F3401000287E
:10360000DBD00020E0E770B504460D4616461FE00B
:10361000324629462046FFF7F9FE08B1012070BD69
:10362000681CA8B125B1FEF7D1FA801BA8420FD9BA
:10363000606C40F020006064202084F8410000208D
:1036400084F8420000BF84F8400000BF0320E6E792
:1036500020688069C0F340000028D9D00020DEE750
:1036600000B587B000BF1148C06C40F004000F499E
:10367000C8640846C06C00F00400019000BF00BFA1
:103680004FF4005002900A4803900020049002A9D1
:103690000848FEF789F9002211462820FEF789FD27
:1036A0002820FEF779FD07B000BD000000100240A1
:1036B000000011100008004802465018401E9042B9
:1036C00004D95018401E4B1E98437047481E22EAEA
:1036D0000000FAE710B5024614462046002305E034
:1036E00001464960096000BF5B1C08301B2BF7D303
:1036F00010BD2DE9F04105460E462F46304600F03C
:103700009DF804461E2C02D90020BDE8F081042C4F
:1037100000D80424201F07EBC000F6E710B503F023
:103720006FFD04460CB1204610BD2046FCE710B5E5
:1037300002F068FE04460CB1012010BD0020FCE739
:1037400042684A60086042681160416070474268A0
:103750004A600860426811604160704742684A6090
:103760000860426811604160704742684A600860C2
:10377000426811604160704742684A600860426870
:10378000116041607047D0E900121160D0E900215A
:1037900051600021416001607047D0E90012116062
:1037A000D0E9002151600021416001607047D0E9FB
:1037B00000121160D0E900215160002141600160D8
:1037C000704701464868884201D1012070470020B7
:1037D000FCE701464868884201D10120704700207B
:1037E000FCE701464868884201D10120704700206B
:1037F000FCE74060006070474060006070474060D8
:103800000060704740600060704770B504460D4628
:1038100029462068FFF794FF70BD70B504460D4639
:1038200029462068FFF793FF70BD70B504460D462A
:1038300029462068FFF799FF70BD0000014601F09E
:10384000004010B16FF0704070474C4808400028AD
:1038500047D001F0FE40F8B101F0E04058B101F06E
:10386000804008B11E20EFE701F0005008B11D2094
:10387000EAE71C20E8E701F0406030B101F00060A9
:1038800008B11B20E0E71A20DEE701F0007008B164
:103890001920D9E71820D7E701F4700080B101F4AE
:1038A000400030B101F4000008B11720CCE7162029
:1038B000CAE701F4001008B11520C5E71420C3E7DA
:1038C00001F4402030B101F4002008B11320BBE71F
:1038D0001220B9E701F4003008B11120B4E710203C
:1038E000B2E701F47F4020B301F4704080B101F4ED
:1038F000404030B101F4004008B10F20A4E70E2091
:10390000A2E701F4005008B10D209DE70C209BE7D1
:1039100001F4406030B101F4006008B10B2093E77E
:103920000A2091E701F4007008B109208CE7082013
:103930008AE701F0F00080B101F0C00030B101F081
:10394000800008B107207FE706207DE701F0200016
:1039500008B1052078E7042076E701F00C0030B1CB
:1039600001F0080008B103206EE702206CE701F0C7
:10397000020008B1012067E7002065E70000FF7F33
:1039800070B50446B4F1FF3F02D14FF0FF3070BD77
:103990004FF47A70A4FB005001464FF47A72002372
:1039A0002846FCF712FDF2E72DE9F04105460C46EA
:1039B0000026FCF7B6FC074600BF05B104B909E0D4
:1039C00004F0004000B105E02146284602F052FD17
:1039D000064600BF00BF3846FCF7ABFC3046BDE8EA
:1039E000F0812DE9F05F80460F4614464FF0000944
:1039F000CA4600250026FCF794FC834600BFB8F1B8
:103A0000000F00D007B91BE0381900F1040909F0D4
:103A1000004000B114E04946404602F02BFD054647
:103A20002819401E611E20EA0106B54200D107E0B8
:103A3000A6EB050A4AF0804A46F804AC354600BFBA
:103A400000BF5846FCF775FC284600F000B830BCB3
:103A5000BDE8C09F2DE9F04705460C46012700262A
:103A6000FCF75FFC814600BFB04605B104B914E025
:103A700054F8046C06F0804010B126F08046A41B78
:103A8000A4F110084146284602F022FD07461FB95E
:103A90002946404602F093FD00BF00BF4846FCF7B0
:103AA00048FC3846BDE8F0872DE9F04704468846D3
:103AB000002500270026A94614B1B8F1FF0F03D84E
:103AC0004FF0FF30BDE8F087FCF72BFC824626461E
:103AD00034463660C6F8048004F10800FFF7FAFDAA
:103AE00004F1E005281BA8EB00001038E860002076
:103AF000A86004F10800E968FFF7FBFD8146B9F111
:103B0000000F05D15046FCF714FC4FF0FF30D9E709
:103B100000BF2946D9F80000FFF72EFE00BF04EBD6
:103B20000800A0F11007002038607860B860F860E5
:103B3000BD601020F860F86840F00040F86038463A
:103B400002F0C8FD5046FCF7F4FB0020BAE7000085
:103B50002DE9F04105462F460026002415B9002026
:103B6000BDE8F081FCF7DDFB804607F10806306810
:103B700020B1346820683060044820604046FCF77B
:103B8000D8FB0CB90020EBE7201DE9E7A55A5AA5A0
:103B90002DE9F04705460E462C46012705B116B91A
:103BA0000120BDE8F087FCF7BCFB804600BF311F59
:103BB00020460A46D0F800C0BCF1000F02D14FF0F9
:103BC000010C25E000F10C0CA2EB0C03D0F800C0B6
:103BD000B3FBFCF90CFB193CBCF1000F02D04FF019
:103BE000010C15E0D0F800C0B3FBFCFCD0F8049049
:103BF000CC4502D34FF0010C0AE0DFF83490D2F844
:103C000000C0CC4502D04FF0010C01E04FF0000C99
:103C1000BCF1000F00D004E0A0680860A16000279C
:103C200000BF00BF4046FCF784FB3846B9E7000000
:103C3000A55A5AA52DE9F04706460F469046344648
:103C4000002516B90120BDE8F087B8F1000F01D1B9
:103C50000120F8E70C2F01D20120F4E7FCF761FB0B
:103C6000824608F1070020F003002060A7F10C0055
:103C70002168B0FBF1F06060606820B95046FCF745
:103C800058FB0120DFE704F10C05A5604FF00009A7
:103C900005E02068284428602D6809F10109606862
:103CA000401E4845F5D8002028605046FCF741FBEF
:103CB0000020C8E700BFD0E900121160D0E9002160
:103CC000516000214160016000BF704710B50A4695
:103CD0000649096801EBC20319684C684460016039
:103CE0004C682060486000BF00BF10BD3800002055
:103CF000014600200022074B1B6803EBC1035A68F2
:103D000001E0401C5268034B1B6803EBC103934264
:103D1000F7D170473800002000210020014612E052
:103D20000B4A126802EBC1004268824201D10122B3
:103D300000E000222AB90648006800EBC100406894
:103D40007047481C01462029EAD30020F8E700000C
:103D5000380000202DE9F84F81460C4615469A465A
:103D60000A9E15B9194800F033B84FF6FB70864229
:103D700002DD16480938F6E704B116B91348401CAD
:103D8000F1E7FCF7CEFA8046301D82B26B46294639
:103D9000204602F041FD074627B14046FCF7C9FA2C
:103DA0003846E0E700981430FFF729FD00981C30F2
:103DB000FFF725FD00982430FFF721FD0098C4810E
:103DC0004046FCF7B6FA0020CDE700000C060002E2
:103DD00018BCBDE8E08F00002DE9FC5F80460F466F
:103DE00091461E4600200090A8F1010BBBF10A0F7E
:103DF00002D3404800F088B817B93E48401CF9E7A4
:103E0000B9F1000F02D13B48801CF3E72EB13A48CC
:103E1000006810B137480A30ECE7FCF782FA0190ED
:103E20000BEB4B0000EBCB003449096801EB80043D
:103E3000A08820B900BF2F480E30009054E0208A9F
:103E400050BB26B900BF2B480F3000904CE02C48E7
:103E5000008820B100BF27480838009044E0294876
:103E60000568324604F11C01284602F029FD01983C
:103E7000FCF75FFA00F0EEF8FCF753FA01902879AE
:103E800000F0400058B1A88820F04000A88000BF92
:103E90001848C01F009027E0208A401E20826189B8
:103EA0002289206801FB020ADAF800003860608984
:103EB000401C80B26081E188884201D1002060818D
:103EC00004F11400FFF785FC50B904F1140002F06E
:103ED00039FD0198FCF72DFA00F0BCF8002089E7C5
:103EE000E089401CE08100BF0198FCF722FA0098AD
:103EF00080E700000E060002D0000020BC00002079
:103F000058000020500000203CBCBDE8C09F0000CD
:103F10002DE9FC5F81460F4690461E46002000902A
:103F2000A9F1010BBBF10A0F02D3434800F08EB890
:103F300017B94148401CF9E7B8F1000F02D13E48DB
:103F4000801CF3E72EB13D48006810B13A480838AC
:103F5000ECE7FCF7E6F901900BEB4B0000EBCB0034
:103F60003749096801EB8004A08820B900BF3248B6
:103F7000C01C00905BE02089404504D200BF2E4861
:103F8000001D009053E0E08950BB26B900BF2A48CD
:103F9000401D00904BE02B48008820B100BF264810
:103FA0000B38009043E028480568324604F11401BC
:103FB000284602F085FC0198FCF7BBF900F04AF8AE
:103FC000FCF7AFF90190287900F0400058B1A888BB
:103FD00020F04000A88000BF17480A38009026E073
:103FE000E089401EE081A1892289206801FB020A44
:103FF000CAF80070A089401C80B2A081E188884284
:1040000001D10020A08104F11C00FFF7E2FB50B9B0
:1040100004F11C0002F096FC0198FCF78AF900F00C
:1040200019F8002082E7208A401C208200BF0198F6
:10403000FCF77FF9009879E711060002D000002014
:10404000BC00002058000020500000203CBCBDE80F
:10405000C09F000010B5FCF764F90446FFF75CFE52
:104060003C380A494860084600684968884208D0D8
:104070000748008828B92046FCF75BF9FCF75CF993
:1040800010BD2046FCF755F900BFF9E750000020AD
:10409000580000202DE9F04105460E4616B9164895
:1040A000BDE8F0814FF6FE70854202DD1248801DAA
:1040B000F6E7FCF736F980461048FFF792FB28B187
:1040C0004046FCF736F90C48401CE9E70B484768C6
:1040D0003846FFF762FBA7F10804658001202070D5
:1040E00004F10800FFF78EFB606830604046FCF783
:1040F00020F90020D4E7000002070002C0000020E1
:104100002DE9F047074688463848006800EB071558
:10411000FCF707F982460A2F01D2287828B95046C1
:10412000FCF707F93248BDE8F0876888002807DD0A
:104130006888401E68805046FCF7FBF80020F2E7D4
:10414000B8F1000F02D12A4EF61C49E02948006858
:1041500010B1274E361D43E02748008810B1244E89
:10416000761D3DE02548046804F13C00FFF7A2FD00
:10417000A08820F00400A080A56104F13C09A0887B
:1041800040F00800A080494605F10800FFF74DFB0C
:1041900008F1010040B1A08840F04000A0804146F5
:1041A000204602F06FFD03E0A08820F04000A080D0
:1041B0005046FCF7BEF8FFF74DFF207900F04000B5
:1041C00060B1FCF7AEF88246A08820F04000A080E5
:1041D0005046FCF7AEF8064EB61D05E00020A2E7FB
:1041E0005046FCF7A6F800BF30469CE7C800002008
:1041F00001070002D00000205800002050000020DD
:104200002DE9F04106462A48006800EB06150A2E03
:1042100002D32848BDE8F081FCF783F807462878E8
:1042200020B93846FCF785F82248F3E768884FF64E
:10423000FE71884205D13846FCF77BF81D48C01D49
:10424000E8E705F10800FFF7CCFA48BBE868A0F101
:104250003C04E868FFF7A1FAA08820F00800A080DD
:10426000207900F0400030B1204602F0FFFFA08826
:1042700020F04000A0800020A061207900F0020022
:1042800040B9A08840F00400A080E18804F13C001F
:10429000FFF71CFD3846FCF74CF8FFF7DBFE05E0A6
:1042A0006888401C68803846FCF743F80020B1E776
:1042B000C8000020010700020149086070470000A3
:1042C000CC00002010B50024FBF7FEFF204610BDF7
:1042D0002DE9F04105460F4600263946284600F0F4
:1042E00045F8064616B13046BDE8F081286800EB77
:1042F000800101EBC0001949096801EBC004FCF71B
:1043000010F88046A08820F00200A080A08840F02D
:104310000400A080E18804F13C00FFF7D7FCFFF720
:10432000FBFC3C380E4948600E48006888B10E48D6
:10433000008870B9084600684968884209D00A4870
:10434000008830B94046FBF7F4FF02F037FB00204D
:10435000CAE74046FBF7EDFF0020C5E74C00002010
:104360005000002088000020580000202DE9F05F58
:1043700007460D464FF000094FF0FF3A17B957486E
:1043800000F0B6B815B95548801FF9E7E86910B9CB
:104390005248801EF4E7286810B95048C01EEFE765
:1043A000A8881F2802DD4D48001FE9E7A869B0F57D
:1043B000004F02D949481930E2E7A86910B94FF413
:1043C0003470A8610821A869FFF776F9A861102167
:1043D0004FF49870FFF770F9A969884202D93F48F5
:1043E000401ECDE7FBF79DFF834611E03C48406847
:1043F000A0F13C043A494868FFF7C5F904F13C01D3
:104400003848FFF79DF93848E1680068FFF722FB5C
:104410003348FFF7D6F90028E8D03248FFF7D1F942
:1044200028B1DFF8B8A00AF10A0A00BF51E02D4810
:104430004068A0F13C042B494868FFF7A4F95846AE
:10444000FBF777FFD4F8109008222748A969006885
:10445000FFF7C7FA06465EB9FBF763FF834604F130
:104460003C012048FFF76CF9DFF880A000BF30E086
:1044700032464846A96902F04BFF8046C4F80080E6
:10448000A868A062E968E1622969216369696163DA
:10449000E660A869A0600020A061E061606202207F
:1044A000A080A088296A09B1802100E0002108438A
:1044B000A080A888E080286860614FF0FF30206508
:1044C0000020E065E869A06300206066C7F80090FE
:1044D00056E75846FBF72DFF504651E7070200020A
:1044E0007800002070000020A800002000020003D7
:1044F00030BCBDE8C09F000070B504461948006894
:1045000008B1194870BD1948008808B11848F9E782
:1045100014B900F05FF8F5E7FBF703FF054615490E
:10452000096801F13C00FFF7C5FB1248006880886C
:1045300020F004000F49096888800E490868214668
:1045400002F0A0FB0B480068808840F02000094979
:10455000096888802846FBF7ECFEFFF77BFD00200A
:10456000D0E70000D00000200D020003580000201A
:104570000E0200025000002010B5FBF7D2FE0446E8
:1045800004480088401C034908802046FBF7D1FE00
:1045900010BD00005800002010B5FBF7C2FE044615
:1045A0000B48008800280DDD09480088401E084996
:1045B00008800846008828B92046FBF7BAFEFFF7B6
:1045C00049FD10BD2046FBF7B4FE00BFF9E700002F
:1045D0005800002070B500241C48006800691C4980
:1045E0000968884201D31B4870BDFBF79AFE054657
:1045F00016490968C888FFF77BFB0446012C17D9C8
:104600001249096801F13C00FFF7BDF80F48006846
:10461000808840F004000D49096888800B4A1268C0
:10462000D1880A4A126802F13C00FFF74FFB05E00F
:104630002846FBF77EFE07480930D5E72846FBF7FA
:1046400078FEFFF707FD0020CEE7000050000020B5
:104650005C00002007020002014903C97047000006
:104660009000002010B5FBF75CFE04460A48006885
:10467000401C094908602046FBF75BFE02F0ACFDD8
:10468000FBF74FFE044604480068401E02490860DC
:104690002046FBF74EFE10BDD00000207047000002
:1046A00000B587B000BF1048C06C40F002000E4952
:1046B000C8640846C06C00F00200019000BF00BF53
:1046C000002248F280010948FDF77AFA48F280009A
:1046D0000290012003900020059002A90348FDF7F5
:1046E00063F907B000BD000000100240000400485C
:1046F00000BFFEE710B590B00024274800780028DE
:1047000047D164230B2225A1012001F099FC41F23D
:10471000883340226946012001F026FA4FF47A706E
:1047200001F012FE20A16846FBF7CDFF044684B3DA
:104730009DF808001E4908709DF8090048709DF812
:104740000A0088709DF80B00C8709DF80C00087175
:104750009DF80D0048719DF80E0088719DF80F00BE
:10476000C8719DF8100008729DF8110048729DF8FC
:10477000120088729DF81300C8729DF81400087327
:104780009DF8150048739DF81600887301200249B2
:10479000087010B010BD0000D800002041542B4319
:1047A00047534E3D310D0A004347534E0000000071
:1047B000389000207047000002480068C0F30220D3
:1047C000704700000CED00E010B5002807DA0A077A
:1047D000140E054A00F00F031B1FD45403E00A0710
:1047E000130E024A135410BD18ED00E000E400E07F
:1047F0002DE9F04104460E46002700257348C068A5
:1048000000F00300C0B17148C06800F003002168E7
:1048100088420FD1206868B16C48C06800F0700011
:10482000702191FAA1F1B1FA81F1C840401C616890
:10483000884238D0012536E02068012804D00228BB
:1048400009D003281AD10DE06048006800F002008A
:1048500000B9012514E05D48006800F4806000B9EB
:1048600001250DE05948006800F4003028B9574888
:10487000006800F4802000B9012501E0012500BF97
:1048800000BF85B9D4E90010401E702292FAA2F24E
:10489000B2FA82F2904008434C49C96821F0730192
:1048A00008434A49C860002D77D14848006820F085
:1048B000806046490860FDF789F9074606E0FDF784
:1048C00085F9C01B022801D9032505E03F4800688F
:1048D00000F000600028F2D100BF002D73D1CEB9E6
:1048E0004FF4FE4191FAA1F1B1FA81F1A06888403C
:1048F000E16809094FF4003292FAA2F2B2FA82F2A8
:104900009140084331490969314A114008432F4910
:10491000086138E0012E1BD14FF4FE4191FAA1F15C
:10492000B1FA81F1A068884001222169C2EB5101EE
:104930004FF4C00292FAA2F2B2FA82F29140084316
:1049400022490969234A11400843204908611AE0B5
:104950004FF4FE4191FAA1F1B1FA81F1A0688840CB
:1049600001226169C2EB51014FF0C06292FAA2F2DA
:10497000B2FA82F29140084314490969164A11407B
:104980000843124908611148006840F080600F49EF
:104990000860FDF71BF9074607E014E0FDF716F97C
:1049A000C01B022801D9032505E00848006800F073
:1049B00000600028F2D000BF2DB904480069A16949
:1049C0000843024908612846BDE8F0810010024012
:1049D000FF80FDFFFF809FFFFF80FFF92DE9F04181
:1049E00004460E46002700256448C06800F0030016
:1049F000C0B16248C06800F00300216888420FD14E
:104A0000206868B15D48C06800F07000702191FABC
:104A1000A1F1B1FA81F1C840401C6168884238D0E8
:104A2000012536E02068012804D0022809D0032897
:104A30001AD10DE05148006800F0020000B90125CC
:104A400014E04E48006800F4806000B901250DE0D4
:104A50004A48006800F4003028B94848006800F46B
:104A6000802000B9012501E0012500BF00BF85B904
:104A7000D4E90010401E702292FAA2F2B2FA82F239
:104A8000904008433D49C96821F0730108433B4900
:104A9000C860002D6FD13948006820F08050374938
:104AA0000860FDF793F8074606E0FDF78FF8C01B96
:104AB000022801D9032505E03048006800F00050C5
:104AC0000028F2D100BFE5BBCEB94FF4FE4191FA08
:104AD000A1F1B1FA81F1A0688840E16809094FF4B9
:104AE000003292FAA2F2B2FA82F2914008432349CC
:104AF0004969234A11400843204948611AE04FF4AC
:104B0000FE4191FAA1F1B1FA81F1A0688840012239
:104B10002169C2EB51014FF0C06292FAA2F2B2FADF
:104B200082F29140084315494969164A11400843E9
:104B3000124948611148006840F080500F490860F0
:104B400000E018E0FDF742F8074606E0FDF73EF802
:104B5000C01B022801D9032505E00848006800F0C1
:104B600000500028F2D000BF2DB9044840696169A7
:104B70000843024948612846BDE8F0810010024020
:104B8000FF80FDFFFF80FFF9F8B5044600260025F1
:104B90002348806D00F0805018B1FDF7A5FB064654
:104BA00016E000BF1E48806D40F080501C498865AB
:104BB0000846806D00F08050009000BF00BFFDF7F8
:104BC00093FB06461648806D20F080501449886596
:104BD000B6F5007F07D1802C10D9A02C01D9022571
:104BE0000CE001250AE0802C01D9032506E0802C89
:104BF00001D1022502E0702C00D10125094800688E
:104C000020F007002843074908600846006800F0C4
:104C10000700A84201D00120F8BD0020FCE70000F9
:104C2000001002400020024070B503460C461546B5
:104C30000021002214E0985C414008200CE001F0C3
:104C400080062EB10A4E367886EA4106F1B201E0BE
:104C50004E06310E461EF0B20028F0DC501CC2B2E7
:104C6000A242E8DBA94201D0012070BD0020FCE790
:104C7000D400002010B52DED088B044624F0030469
:104C800000EE104AB8EE400A10EE100A02F008FFDB
:104C900041EC1B0B9FED0C0B53EC102B02F018FD9D
:104CA00041EC1A0B9FED0A0B53EC102B02F068FC41
:104CB00041EC190B02F032FC08EE100AB0EE480A83
:104CC000BDEC088B10BD00000000000000405F3FFD
:104CD00000000000000018C02DE9FC4104460D460C
:104CE000002001900027009014B1012C0ED106E0A5
:104CF00003236A46E521802000F0F6FC07E0032349
:104D00006A46E321802000F0EFFC00E000BF00BF16
:104D10000098C0F30F2028800098000C8DF8040044
:104D20000098000A8DF805000098C6B232460221AC
:104D300001A8FFF779FF07433846BDE8FC8110B5AD
:104D40000024FE21802000F0B9FC04460520FCF779
:104D5000D5FD10BD10B52DED088B044624F00304DD
:104D600000EE104AB8EE400A10EE100A02F098FE6B
:104D700041EC1B0B9FED0C0B53EC102B02F0A8FC2D
:104D800041EC1A0B9FED0A0B53EC102B02F0F8FBD1
:104D900041EC190B02F0C2FB08EE100AB0EE480A13
:104DA000BDEC088B10BD0000D7A3703D0AF7653F2E
:104DB000CDCCCCCCCC6C47C008B5002000900024F2
:104DC000FFF7BDFF4FF47A7001F0BEFA28E06946A4
:104DD0000020FFF781FF58B9BDF800402046FFF7DB
:104DE00049FF10EE105A284602F05AFE0D4A03C23F
:104DF0003220FCF783FD69460120FFF76DFF58B9AB
:104E0000BDF800402046FFF7A5FF10EE105A2846D7
:104E100002F046FE044A03C24FF47A7001F094FA9D
:104E2000D5E7000000000020080000207047704710
:104E3000704710B5FFF716FCFDF73EF910BD0000F6
:104E400010B5B8B01020279001202D9000202E9092
:104E500060202F9002203190012127A8C1620163B8
:104E600028214163072181630221C1630164FDF7A9
:104E70008DFE18B139211EA000F0F6FB0F20229004
:104E8000032023900020249025902690042122A81E
:104E9000FDF79CFC18B1472115A000F0E5FB0220AE
:104EA000009000200F906846FDF726FA18B14E21B9
:104EB0000FA000F0D9FB4FF40070FDF7CFF918B147
:104EC00055210BA000F0D0FBFDF774FD4FF47A7173
:104ED000B0FBF1F42046FEF793F90420FEF77CF9CD
:104EE00000221146501EFDF764F938B010BD0000D5
:104EF0006D61696E2E6300001048006840F4700018
:104F00000E4908600E48006840F001000C49086036
:104F100000208860084600680A490840084908607F
:104F20008814C8600846006820F4802008600020CB
:104F30008861C803014980390860704788ED00E046
:104F400000100240FFFFF6EA90F8241001F0010182
:104F500039B10168496821F40031826A114302685D
:104F6000516090F8241001F00201022907D1016874
:104F7000496821F48031C26A11430268516090F897
:104F8000241001F00401042907D10168496821F4C3
:104F90008021026B11430268516090F8241001F0E7
:104FA0000801082907D10168496821F40041426BD2
:104FB00011430268516090F8241001F0100110298B
:104FC00007D10168896821F48051826B114302681E
:104FD000916090F8241001F02001202907D1016888
:104FE000896821F40051C26B11430268916090F806
:104FF000241001F04001402913D10168496821F4CF
:105000008011026C114302685160016CB1F5801F80
:1050100007D10168496821F4C001426C114302685C
:10502000516090F8241001F08001802907D10168B7
:10503000496821F40021826C114302685160704775
:1050400038B5044600250020E066FCF7BFFD0546A4
:105050002068006800F0080008280CD16FF07E403E
:105060002B4600224FF400110090204600F0BAFABF
:1050700008B1032038BD2068006800F0040004284F
:105080000CD16FF07E402B4600224FF4800100903F
:10509000204600F0A7FA08B10320EBE7202084F8AF
:1050A000690084F86A0000BF002084F8680000BF2F
:1050B00000BFDFE710B504462068006820F040001C
:1050C0002168086094F86900232803D1222084F81D
:1050D000690002E0202084F869002046FEF77FF98D
:1050E000002010BD2DE9F05F044600251026A946DA
:1050F000AA46AB46FC492068884201D1012000E065
:10510000002000B100E000BF2169A0680843616988
:105110000843E16940EA010520680068F349084056
:105120002843216808602068406820F44050E16806
:10513000084321684860A569EB492068884201D18D
:10514000012000E0002008B9206A0543206880683B
:1051500020F4306028432168886000BFE44920685B
:10516000884216D1E348006800F0030030B10128FE
:1051700008D0022804D0032808D105E0012607E062
:10518000022605E0042603E0082601E0102600BF01
:105190008CE0D9492068884216D1D648006800F0D2
:1051A0000C0030B1042808D0082804D00C2808D1FD
:1051B00005E0002607E0022605E0042603E00826B5
:1051C00001E0102600BF71E0CC492068884216D16A
:1051D000C848006800F0300030B1102808D02028FE
:1051E00004D0302808D105E0002607E0022605E0BB
:1051F000042603E0082601E0102600BF56E0C0495F
:105200002068884216D1BB48006800F0C00030B169
:10521000402808D0802804D0C02808D105E0002606
:1052200007E0022605E0042603E0082601E0102638
:1052300000BF3BE0B3492068884219D1AD480068FF
:1052400000F4407048B1B0F5807F0AD0B0F5007F1F
:1052500005D0B0F5407F08D105E0002607E0022622
:1052600005E0042603E0082601E0102600BF1DE04B
:105270009D492068884219D19E48006800F440602A
:1052800048B1B0F5806F0AD0B0F5006F05D0B0F529
:10529000406F08D105E0002607E0022605E004265D
:1052A00003E0082601E0102600BF00BF00BF8E49C2
:1052B0002068884201D1012000E00020002871D040
:1052C0000025042E0FD003DC3EB1022E12D108E0DF
:1052D000082E0CD0102E0DD10DE0FDF771FB054608
:1052E0000CE0894D0AE0FDF797FB054606E04FF418
:1052F000004503E000BF4FF0010B00BF00BF002DD1
:105300000AD0606800EB4000A84203D86068000340
:10531000A84202D24FF0010B23E1042E2ED003DC71
:105320003EB1022E51D118E0082E3CD0102E4CD1A7
:105330004CE0FDF745FB4FF48071A0FB0130616844
:1053400049085F1840F10001D4F804C06246002308
:105350003846FBF73AF805463BE0D4F804C04FEA7C
:105360005C000021694BC71841EB010862460B46FF
:1053700038464146FBF729F805462AE0FDF74CFB85
:105380004FF48071A0FB0130616849085F1840F15B
:105390000001D4F804C0624600233846FBF715F834
:1053A000054616E022E0D4F804C04FEA5C00002174
:1053B0004FF40003C71841EB010862460B4638461C
:1053C0004146FBF702F8054603E000BF4FF0010B32
:1053D00000BF00BFB5F5407F05D3B5F5801F02D2F1
:1053E0002068C560BDE04FF0010BBAE0E069B0F5A0
:1053F000004F54D1042E2BD005DC4EB1012E12D01B
:10540000022E3BD11AE0082E2DD0102E36D136E0D8
:10541000FDF7D6FA4000616800EB5100B0FBF1F0F7
:105420001FFA80FA2EE0FDF7E1FA4000616800EB18
:105430005100B0FBF1F01FFA80FA23E034496068B4
:1054400001EB50006168B0FBF1F01FFA80FA19E03F
:10545000FDF7E2FA4000616800EB5100B0FBF1F0AB
:105460001FFA80FA0EE04FF48031606801EB5000C3
:105470006168B0FBF1F01FFA80FA03E000BF4FF063
:10548000010B00BF00BF4FF6F0700AEA0009CAF333
:10549000420049EA00092068C0F80C9061E0042E3F
:1054A00043D005DC4EB1012E12D0022E54D131E092
:1054B000082E45D0102E4FD14FE0FDF781FA6168DC
:1054C00000EB5100B0FBF1F080B22168C86047E00A
:1054D000FDF78CFA616800EB5100B0FBF1F080B28F
:1054E0002168C8603CE0000000800040F369FFEFE5
:1054F000003801408810024000440040004800404D
:10550000004C0040005000400024F400000024F44F
:105510000048E8011449606801EB50006168B0FB85
:10552000F1F080B22168C8601AE0FDF775FA616891
:1055300000EB5100B0FBF1F080B22168C8600FE0D1
:105540004FF40041606801EB50006168B0FBF1F07E
:1055500080B22168C86003E000BF4FF0010B00BFBC
:1055600000BF584600F002B80024F40030BCBDE88B
:10557000C09F014691F86900212803D091F8690085
:1055800023282DD1B1F8520068B90868006820F0CE
:1055900080000B6818600868006840F040000B68E5
:1055A0001860002070478868B0F5805F0BD10869EB
:1055B00048B9CA6C1088C0F308000B681885C86C1D
:1055C000801CC86405E0CB6C581CC86418780B6854
:1055D0001885B1F85200401EA1F852000020E1E702
:1055E0000220DFE72DE9F04104460D4617469846B4
:1055F000069E21E0701CF8B12EB1FCF7E7FAA0EB93
:105600000800B04218D92068006820F4D0702168E2
:1056100008602068806820F00100216888602020F0
:1056200084F8690084F86A0000BF002084F86800EC
:1056300000BF0320BDE8F0812068C0692840A8426F
:1056400001D1012000E00020B842D3D00020F1E7D2
:1056500010B5012000F0A6F910BD10B5022000F031
:10566000A1F910BD00BFFEE700BFFEE770B504461C
:105670000D464FF47A7000F067FE70BD03B40198D8
:105680004100009850EAC12018BF04204A0D18BFFD
:1056900040F0010040F2FF72B2EB515F08BF40F0F2
:1056A0000200012808BF052002B0704730380A28E0
:1056B00001D2012070470020704700007CB50446ED
:1056C0000D4600260020019001954FF47A700123C9
:1056D00001AA214600900348FCF708FC0646304624
:1056E0007CBD0000EC8F00202DE9FC4704460D46F0
:1056F00016461F464FF00008C146124805704FF489
:105700007A7001230F4A214600900F48FCF7EEFB08
:1057100080464FF47A703B4601AA214600900A4821
:10572000FCF726FB81469DF8040000049DF8051057
:1057300000EB01209DF806100844306048EA09009B
:1057400000F004B8D7000020EC8F00200CBCBDE8AE
:10575000F0870000FEF7A4FF4FF47A7000F0F4FD2C
:105760001948006820F04040174908600846006862
:1057700040F0804008604FF4FA7000F0E5FD1248F8
:10578000006820F44040104908600846006840F472
:10579000804008604FF4FA7000F0D6FD12E001225C
:1057A000D1030948FCF70CFA4FF47A7000F0CCFDF5
:1057B00000224FF400410448FCF702FA4FF47A70DB
:1057C00000F0C2FDEBE700000004004808B500BF90
:1057D0000648C06C40F008000449C8640846C06C24
:1057E00000F00800009000BF00BF08BD001002409C
:1057F0002DE9F04104460F4616461D46042C01DCF7
:10580000002C03DC4FF0FF30BDE8F0810EB1002D1D
:1058100002DC4FF0FF30F7E7B7F5165F05D0B7F5BC
:10582000E13F02D04FF0FF30EEE7FFF7CFFF601E01
:10583000C0EBC00000EB8000584A02EB800000F192
:1058400070010020FEF726FC601EC0EBC00000EBDC
:105850008000524A02EB800000F174010120FEF743
:1058600019FC601E4E4951F82010C0EBC00000EB3F
:1058700080004A4A42F820104FF41651601EC0EBD7
:10588000C00000EB800002EB800041600021601E40
:10589000C0EBC00000EB800002EB80008160601E66
:1058A000C0EBC00000EB800002EB8000C160601E16
:1058B000C0EBC00000EB800002EB800001610C2116
:1058C000601EC0EBC00000EB800002EB8000416175
:1058D0000021601EC0EBC00000EB800002EB8000E6
:1058E0008161601EC0EBC00000EB800002EB800015
:1058F000C161611EC1EBC10101EB810102EB8100BD
:10590000FDF798FC08B100BFFEE7601EC0EBC000C9
:1059100000EB8000214901EB8000866705EBD57123
:1059200006EB6102611EC1EBC10101EB81011B4B62
:1059300003EB8101CA670021601EC0EBC00000EBD1
:1059400080001A4602EB8000C0F88010601EC0EB99
:10595000C00000EB8000114601EB8000C0F88450CD
:105960000021601EC0EBC00000EB800002EB800055
:10597000C0F8881005EBD571C1F34F02611EC1EB71
:10598000C10101EB810103EB8100314600F00EFB08
:10599000022801D1001F37E7002035E7AC0C0020BA
:1059A0002C0000202DE9F041054600BF00BF681E15
:1059B000C0EBC00000EB80006A4901EB8004206866
:1059C000C069C0F300162068006800F01007002EC0
:1059D00063D0002F61D0681EC0EBC00000EB8000D8
:1059E000604A02EB8000616DC06F81421BD9681E66
:1059F000C0EBC00000EB8000114601EB8000806F1F
:105A00006065681EC0EBC00000EB800001EB800009
:105A1000C16F681EC0EBC00000EB800002EB80008D
:105A2000C0F880101BE0681EC0EBC00000EB8000D7
:105A30004C4901EB8000C06F6065681EC0EBC00080
:105A400000EB800001EB8000816F681EC0EBC0009E
:105A500000EB8000434A02EB8000C0F8801034F86D
:105A6000580F6188411A681EC0EBC00000EB80002F
:105A70003C4A02EB8000C0F8881020886080691ED4
:105A8000C1EBC10101EB810102EB8101086FFEF75F
:105A9000B7FB102054F8581D08622068C06900F058
:105AA00001062068006800F4807726B11FB1E06E1F
:105AB00040F00100E0662068C069C0F3400620683D
:105AC000806800F0010726B11FB1E06E40F00400CD
:105AD000E0662068C069C0F3800626B11FB1E06EA1
